:1000000007C1000033C1000031C100002FC1000052
:100010002DC100002BC1000029C1000027C1000034
:1000200025C1000023C1000021C100001FC1000044
:100030001DC100001BC1000019C1000017C1000054
:1000400015C1000013C1000011C100000FC1000064
:100050000DC100000BC1000009C1000003C4000075
:1000600005C1000003C1000001C10000FFC0000085
:10007000FDC00000FBC00000F9C00000F7C0000098
:10008000F5C00000F3C00000F1C00000EFC00000A8
:10009000EDC00000EBC00000E9C00000E7C00000B8
:1000A000E5C00000E3C00000E1C00000DFC00000C8
:1000B000DDC00000DBC00000D9C00000D7C00000D8
:1000C000D5C00000D3C00000D1C00000CFC00000E8
:1000D000CDC00000CBC00000C9C00000C7C00000F8
:1000E000C5C000005B055E054D055105570595052A
:1000F000620566056C05700574057A057E05820546
:10010000950588058C05900500000A0B02090C0D69
:100110000E080703040100000000000000000000BA
:1001200000000000000000000000000000000000CF
:10013000000000001211100000000000000000008C
:1001400000000000000000000000000000000102AC
:1001500010202008081020401020408002010201D9
:100160000804020101020408102040808040201091
:1001700008040201800402018040201008040201EA
:100180000804020101020408102040800102040852
:10019000102040800505050507050808080802022B
:1001A00002020A0A08080404040401010101010111
:1001B00001010303030303030303040707070C0CF4
:1001C0000C0C0C0C0C0C02020202060606060606BB
:1001D00006060B0B0B0B0B0B0B0B00002200250074
:1001E00028002B002E003100340002010000050120
:1001F00008010B0100002100240027002A002D0027
:100200003000330001010000040107010A01B101BF
:1002100011241FBECFEFD1E2DEBFCDBF00E00CBF87
:1002200017E0A0E0B2E0E8EBFCE000E00BBF02C0AA
:1002300007900D92A437B107D9F727E0A4E7B7E0FC
:1002400001C01D92AD39B207E1F712E0C0E1D2E082
:1002500000E005C022970109FE010BBF27D5CE3073
:10026000D10780E00807B1F70FD524C5C9CECF93D9
:10027000DF93EC0161E087E092D461E086E08FD407
:1002800061E085E08CD461E084E089D461E083E0C2
:1002900086D461E082E083D464EF71E080E090E096
:1002A0004ED388819981019719F460E087E077D473
:1002B0008A819B81019719F460E086E070D48C817B
:1002C0009D81019719F460E085E069D48E819F815A
:1002D000019719F460E084E062D4888599850197DC
:1002E00019F460E083E05BD48A859B85019719F45B
:1002F00060E082E054D468EE73E080E090E01FD3C9
:1003000061E087E04CD461E086E049D461E085E0BB
:1003100046D461E084E043D461E083E040D461E00E
:1003200082E0DF91CF913BC4CF9320E042E060E1D7
:100330008CE797E0B3D16DE277E08CE797E0A2D449
:1003400068EE73E080E090E0FAD28CE797E089D124
:10035000C2E061E08C2FEAD3CF5FC830D1F7CF91F4
:100360000895CF92EF920F9388E0C82E99E0E92E7E
:100370000AE02BE04CE06DE08CE797E015D20F919E
:10038000EF90CF900895EF92FF920F931F93CF932A
:10039000DF9320E0E22E22E0F22E00EE14E0C0E037
:1003A000D0E0C130D10519F54091D0045091D1046D
:1003B00061E08CE797E017D24091D2045091D304CA
:1003C00062E08CE797E00FD240E060E08CE797E0D6
:1003D0004DD161E08CE797E040D262E08CE797E096
:1003E0003CD2809102029091030241DF20C0C830CC
:1003F000D10519F54091D4045091D50461E08CE702
:1004000097E0F1D14091D6045091D70462E08CE797
:1004100097E0E9D140E060E08CE797E027D161E028
:100420008CE797E01AD262E08CE797E016D268EE8C
:1004300073E080E090E083D230C0C930D10569F428
:100440004091D8045091D90461E08CE797E0CBD17A
:100450004091DA045091DB04D9CFC033D10569F45F
:100460004091DC045091DD0461E08CE797E0BBD162
:100470004091DE045091DF04C9CFF80140815181E1
:1004800061E08CE797E0AFD140E060E08CE797E077
:10049000EDD061E08CE797E0E0D164EF71E080E0BF
:1004A00090E04DD2F701819191917F01E0DE68EEFD
:1004B00073E080E090E043D28CE797E0D2D02196C1
:1004C0000E5F1F4FC233D10509F06BCFDF91CF9183
:1004D0001F910F91FF90EF900895CF93DF936BE3FF
:1004E00077E08CE797E0CED341E060E08CE797E0DF
:1004F000BDD064E477E08CE797E0C4D360ED77E0AB
:1005000080E090E01CD28CE797E0ABD03CDF65E563
:1005100077E08CE797E0B6D3CCEBD4E049915991E2
:1005200061E08CE797E05FD140E060E08CE797E026
:100530009DD061E08CE797E090D168EE73E080E0B9
:1005400090E0FDD18CE797E08CD084E0C03DD807E7
:1005500029F7DF91CF910895CF93DF93EC0160E00D
:100560008E811DD381E090E021D261E08E8117D38E
:1005700081E090E01BD260E08E8111D384E690E0B0
:10058000DF91CF9113C2EF92FF920F931F93CF93FE
:10059000DF938C01C0E0D0E0E62EF12CB7010C2EE9
:1005A00002C0759567950A94E2F76170F801EC0F47
:1005B000FD1F8781F4D22196C430D10579F7C80197
:1005C000DF91CF911F910F91FF90EF90C5CFEF92E8
:1005D000FF920F931F93CF93DF938C01C0E0D0E085
:1005E000E62EF12CB7010C2E02C0759567950A9482
:1005F000E2F76170F801EC0FFD1F8781D0D22196E0
:10060000C830D10579F7C801DF91CF911F910F91C3
:10061000FF90EF90A1CF1F93CF93DF93EC01162FA4
:10062000642F8C81BCD28D818F3F11F060E0B7D2F6
:100630008F85612F84FF05C0CE01DF91CF911F917F
:10064000C6CF70E084E0759567958A95E1F7CE0195
:100650009ADF612FCE01DF91CF911F9194CF40E0BF
:10066000DACF61E0FCDF80ED97E0A0C1443008F014
:1006700043E0FC012389421710F04FEF420FFC01C9
:10068000E40FF11D2489260F2068622FE8CFFC01BA
:100690006089262F2460208B6C60E1CF0F931F931D
:1006A000CF93DF93EC01423018F08F8588608F87FD
:1006B0004B8B1C8A80E48D8B6E8B70E0605C7F4F6F
:1006C0006F8B222329F0413019F48F8584608F8746
:1006D00061E08C812BD28D818F3F11F061E026D2B9
:1006E00061E08E8123D200E010E08F8584FF03C09B
:1006F00088E090E002C084E090E0081719074CF40D
:10070000FE01E00FF11F61E0878110D20F5F1F4FE4
:10071000ECCF80E593EC4AD160E08C8140D260E080
:100720008E813DD28D818F3F11F060E038D26F8590
:1007300064FD16C063E0CE0126DF84E991E136D185
:1007400063E0CE0120DF84E991E130D163E0CE01A6
:100750001ADF86E990E02AD162E0CE0114DF11C0F1
:100760006062CE017CDF84E991E120D16F85606217
:10077000CE0175DF86E990E019D16F856062CE0108
:100780006EDF6F856062CE016ADF84E0888BCE0108
:100790007EDFCE0166DF82E0898B66E0CE01DF91ED
:1007A000CF911F910F915BCFCF92EF920F93FC01EE
:1007B000138212828FE697E09183808364838FEFA8
:1007C0008583468327830087E186C2861386148645
:1007D00015861686178620E041E060E1CF010F9173
:1007E000EF90CF905BCFCF92DF92EF92FF920F937B
:1007F0001F93CF93DF931F921F92CDB7DEB78C016B
:10080000677088E0689FB00111246064C801498363
:100810005A8325DF4981C42E5A81D52EE12CF12C33
:10082000D6016D916D01D801ED91FC910190F0819F
:10083000E02DC8011995BFEFEB1AFB0AE8E0EE16B0
:10084000F10471F70F900F90DF91CF911F910F91ED
:10085000FF90EF90DF90CF90089541E0DCDE81E0E3
:1008600090E008951F920F920FB60F9211242F93CC
:100870003F938F939F93AF93BF93809195079091F0
:100880009607A0919707B09198073091940723E0BD
:10089000230F2D3720F40196A11DB11D05C026E8B8
:1008A000230F0296A11DB11D2093940780939507F5
:1008B00090939607A0939707B09398078091990714
:1008C00090919A07A0919B07B0919C070196A11D5A
:1008D000B11D8093990790939A07A0939B07B093BB
:1008E0009C07BF91AF919F918F913F912F910F9056
:1008F0000FBE0F901F9018953FB7F89480919907FD
:1009000090919A07A0919B07B0919C0726B5A89B50
:1009100005C02F3F19F00196A11DB11D3FBF6627ED
:10092000782F892F9A2F620F711D811D911D42E032
:10093000660F771F881F991F4A95D1F708958F92E8
:100940009F92AF92BF92CF92DF92EF92FF926B0194
:100950007C01D2DF4B015C01C114D104E104F1043C
:10096000E1F09DD1C9DF681979098A099B09683EC0
:1009700073408105910580F321E0C21AD108E10896
:10098000F10888EE880E83E0981EA11CB11CC114EA
:10099000D104E104F10431F7DFCFFF90EF90DF9055
:1009A000CF90BF90AF909F908F9008958230910527
:1009B00038F0880F991F880F991F05970197F1F755
:1009C0000895789484B5826084BD84B5816084BDC7
:1009D00085B5826085BD85B5816085BDEEE6F0E0B8
:1009E000808181608083E1E8F0E010828081826014
:1009F0008083808181608083E0E8F0E08081816095
:100A00008083E1EBF0E0808184608083E0EBF0E0C4
:100A1000808181608083E1E9F0E080818260808371
:100A2000808181608083E0E9F0E080818160808363
:100A3000E1EAF0E080818260808380818160808350
:100A4000E0EAF0E0808181608083E1E2F1E0808192
:100A500082608083808181608083E0E2F1E0808138
:100A600081608083EAE7F0E0808184608083808118
:100A700082608083808181608083808180688083C0
:100A80001092C100089590E0FC013197E231F10528
:100A900008F04BC0EE58FF4F03C1809180008F7764
:100AA00003C0809180008F7D8093800008958091A5
:100AB0008000877FF9CF84B58F7702C084B58F7DA2
:100AC00084BD08958091B0008F7703C08091B000FD
:100AD0008F7D8093B0000895809190008F7707C03C
:100AE000809190008F7D03C080919000877F8093DC
:100AF000900008958091A0008F7707C08091A0009A
:100B00008F7D03C08091A000877F8093A00008950F
:100B1000809120018F7707C0809120018F7D03C0D5
:100B200080912001877F809320010895CF93DF93E8
:100B300090E0FC01E25BFE4F2491FC01EC56FE4F7D
:100B40008491882349F190E0880F991FFC01EC50B3
:100B5000FE4FA591B49186529E4FFC01C591D49150
:100B60009FB7611108C0F8948C91209582238C93D3
:100B7000888182230AC0623051F4F8948C91322F1C
:100B8000309583238C938881822B888304C0F894CA
:100B90008C91822B8C939FBFDF91CF9108950F93FF
:100BA0001F93CF93DF931F92CDB7DEB7282F30E08E
:100BB000F901E85FFE4F8491F901E25BFE4F149169
:100BC000F901EC56FE4F04910023C1F0882319F07F
:100BD000698359DF6981E02FF0E0EE0FFF1FE652D5
:100BE000FE4FA591B4919FB7F8948C91611103C009
:100BF0001095812301C0812B8C939FBF0F90DF91B3
:100C0000CF911F910F910895CF92DF92EF92FF92B3
:100C10000F931F93CF93DF937C016A01EB0100E0F8
:100C200010E00C151D0571F06991D701ED91FC9153
:100C30000190F081E02DC7011995892B19F00F5F04
:100C40001F4FEFCFC801DF91CF911F910F91FF9000
:100C5000EF90DF90CF9008956115710581F0DB0171
:100C60000D900020E9F7AD0141505109461B570B8B
:100C7000DC01ED91FC910280F381E02D199480E07C
:100C800090E00895E9CF08959CDEFDDF4DDBC0E0E4
:100C9000D0E023DC2097E9F30E940000FACF08950A
:100CA000EE0FFF1F0590F491E02D19940790F69137
:080CB000E02D1994F894FFCF28
:100CB800B004A40498048C048004740468045C04DC
:100CC8005004440438042C04200414040804FC03CD
:100CD800F003E403D803CC03C003B403A8039C03C4
:100CE8009003840378036C036003540348033C03B4
:100CF8003003240318030C030003F402E802DC02A7
:100D0800D002C402B802AC02A002940288027C029B
:100D180070026402000000000100000000000100F1
:100D280000000000000000000000010001000100B8
:100D380001000100000001000000010000000000A7
:100D48000000000001000000000001000000010098
:100D58000100010001000100010000000100000085
:100D68000100010000000000000001000100000077
:100D78000100000001000100010000000100010065
:100D88000100010000000000000001000000010057
:100D98000000010000000100010000000100000047
:100DA8000100010001000000010000000100000036
:100DB8000100000001000100010000000100010025
:100DC8000000010001000100010001000000000016
:100DD8000100000000000100000001000000000008
:100DE80001000000010000000000000000000000F9
:100DF80001000100010000000100010001000000E5
:100E080001000000010001000000010001000000D5
:100E180000000100010000000100010001000100C4
:100E280000000100000000000100010000000100B6
:100E380000000100000001000100010001000000A5
:100E48000000010000000100010001000100010094
:100E58000100010001000100010001000100000083
:100E68000000010000000100010001000000010075
:100E78000000010001000100010001000000000065
:100E88000100010000000000000000000000010057
:100E98000100010000000100010001000000000045
:100EA8000100000000000000000001000100010036
:100EB8000000000000000000000001000000000029
:100EC8000100010001000000010000000000010015
:100ED8000100010001000100000000000000010005
:100EE80000000000000001000100000000000000F8
:100EF80001000000000001000100000000000100E6
:100F080001000000000001000100000000000100D5
:100F180000000000010000000100000000000100C6
:100F280000000000010000000100010000000100B5
:100F380001000000000000000100010000000000A6
:100F48000000010001000000000001000100000095
:100F58000000000000000100000001000100000086
:100F68000100000000000000000000008D0585055C
:100F78007D0575056D0565055D0555054D0544053A
:100F8800B505AD05B505A505B5059D05B5059505D9
:100F9800250774071D0715070D070507FD06F50644
:100FA80074077407ED06E506DD06D506CD06C50609
:100FB800BD06B506AD06A5069D0695068D068506F1
:100FC8007D0675066D0665065D0655064D064506E1
:100FD8003D0635062D0625061D0615060D060506D1
:100FE800FD05F505ED05E505DD05D505CD05C505C9
:100FF8007407BD0500081418080402040000020460
:101008000810100E000010101215130E000006082C
:1010180006080A0602001012130E0202000011113F
:101028000A040A0400000C020C020A0C04000C0258
:10103800040804020000040A040804020000040A68
:101048000A0A0A040000001C0A180A080005021F00
:101058000A1A0A0A0004021F0A1A0A0A0000001FD4
:101068000A1A0A0A0000000E010E010E00001F09EC
:101078000911130D00001F040904120C04000000DC
:101088000000080402001F010715190900000B15CC
:101098000913150904001F04080C12100C001F1175
:1010A8000917090500001F0D0B07010100000B15AA
:1010B8000D051D0904001F010B15110900001F0172
:1010C8000709090701001F021A15150A00001F0C5D
:1010D8000204080400120C121208040200001F0582
:1010E800050F150900000B150D050F1509001F0147
:1010F800070D0B0701001F14140F050500001F0939
:101108000907010100001F01010F150900000B1557
:101118000911130D00001F0206080A0601001F0925
:101128001509130D00001F010709090900001F1503
:101138001515150900001F040812150E00001F04DC
:101148000806110E00001F04040A0A0400001F020A
:101158000608080600001F010D030D0100001F0905
:10116800110B051908001F0117151D0100001F09A3
:101178001209130D00001F011D09070100001F04BB
:101188000904120C00001F091109130D00001F09A2
:101198000505150900001F090B15130D00001F0494
:1011A8000E150E04000804121208040200001F1293
:1011B8001208040200001F18041B051900001F0C68
:1011C800020C020C0006040408060A0C02001F04A4
:1011D80008060A0C02001B05050F05190068656C56
:1011E8006C6F2057656C636F6D65004D41524154BB
:1011F80048492000424152414B4841444849202E29
:101208002E2E2E2E00204D415241544849204E5535
:101218004D424552532E2E2E2E2E00000000002D3A
:0412280004040600B4
:00000001FF
