:100000000C945D000C9485000C9485000C94850084
:100010000C9485000C9485000C9485000C9485004C
:100020000C9485000C9485000C9485000C9485003C
:100030000C9485000C9485000C9485000C9485002C
:100040000C94E1030C9485000C9485000C948500BD
:100050000C9485000C9485000C9485000C9485000C
:100060000C9485000C94850000000008000201003B
:100070000003040700000000000000000102040863
:100080001020408001020408102001020408102002
:10009000040404040404040402020202020203032E
:1000A0000303030300000000250028002B000000CC
:1000B0000000240027002A001A0111241FBECFEFE0
:1000C000D8E0DEBFCDBF16E0A0E0B1E0EEE7FBE098
:1000D00002C005900D92A437B107D9F726E0A4E736
:1000E000B6E001C01D92AD39B207E1F710E0CAEBEE
:1000F000D0E004C02297FE010E94B905C83BD10799
:10010000C9F70E94A7050C94BD050C940000CF937D
:10011000DF93EC0161E087E00E94300561E086E05A
:100120000E94300561E085E00E94300561E084E0D6
:100130000E94300561E083E00E94300561E082E0CA
:100140000E94300564EF71E080E090E00E944E0470
:1001500088819981019721F460E087E00E94300551
:100160008A819B81019721F460E086E00E9430053E
:100170008C819D81019721F460E085E00E9430052B
:100180008E819F81019721F460E084E00E94300518
:1001900088859985019721F460E083E00E9430050D
:1001A0008A859B85019721F460E082E00E943005FA
:1001B00068EE73E080E090E00E944E0461E087E02A
:1001C0000E94300561E086E00E94300561E085E034
:1001D0000E94300561E084E00E94300561E083E028
:1001E0000E94300561E082E0DF91CF910C943005F0
:1001F000CF9320E042E060E18CE796E00E94E302CA
:100200006DE276E08CE796E00E94A40568EE73E06C
:1002100080E090E00E944E048CE796E00E94C202CB
:10022000C2E061E08C2F0E94F704CF5FC830C9F7AD
:10023000CF910895CF92EF920F9388E0C82E99E066
:10024000E92E0AE02BE04CE06DE08CE796E00E949E
:1002500081030F91EF90CF900895EF92FF920F934B
:100260001F93CF93DF9320E0E22E21E0F22E00EEE9
:1002700013E0C0E0D0E0C130D105F9F44091D003E3
:100280005091D10361E08CE796E00E94A103409178
:10029000D2035091D30362E08CE796E00E94A10361
:1002A00040E060E08CE796E00E94C90261E08CE7E4
:1002B00096E00E94DB0362E05DC0C830D10571F4B6
:1002C0004091D4035091D50361E08CE796E00E9401
:1002D000A1034091D6035091D70321C0C930D10565
:1002E00071F44091D8035091D90361E08CE796E016
:1002F0000E94A1034091DA035091DB0310C0C03388
:10030000D10549F54091DC035091DD0361E08CE7B4
:1003100096E00E94A1034091DE035091DF0362E06A
:100320008CE796E00E94A10340E060E08CE796E055
:100330000E94C90261E08CE796E00E94DB0362E064
:100340008CE796E00E94DB0368EE73E080E090E0CB
:100350000E944E0413C0F8014081518161E08CE796
:1003600096E00E94A10340E060E08CE796E00E94E6
:10037000C90261E08CE796E00E94DB0364EF71E064
:1003800080E090E00E944E04F701819191917F01FD
:100390000E94870068EE73E080E090E00E944E04C7
:1003A0008CE796E00E94C20221960E5F1F4FC23377
:1003B000D10509F060CFDF91CF911F910F91FF9090
:1003C000EF900895CF93DF936BE376E08CE796E0B0
:1003D0000E94A40541E060E08CE796E00E94C9021B
:1003E00064E476E08CE796E00E94A40560ED77E097
:1003F00080E090E00E944E048CE796E00E94C202EA
:100400000E942D0165E576E08CE796E00E94A40548
:10041000CCEBD3E04991599161E08CE796E00E94E2
:10042000A10340E060E08CE796E00E94C90261E031
:100430008CE796E00E94DB0368EE73E080E090E0DA
:100440000E944E048CE796E00E94C20283E0C03D09
:10045000D80701F7DF91CF910895CF93DF93EC0197
:1004600060E08E810E94300581E090E00E94880467
:1004700061E08E810E94300581E090E00E94880456
:1004800060E08E810E94300584E690E0DF91CF919C
:100490000C948804EF92FF920F931F93CF93DF93F6
:1004A0008C01C0E0D0E0E62EF12CB7010C2E02C08A
:1004B000759567950A94E2F76170F801EC0FFD1FDE
:1004C00087810E9430052196C430D10571F7C8019B
:1004D000DF91CF911F910F91FF90EF900C942D021F
:1004E000EF92FF920F931F93CF93DF938C01C0E0A5
:1004F000D0E0E62EF12CB7010C2E02C07595679561
:100500000A94E2F76170F801EC0FFD1F87810E94E9
:1005100030052196C830D10571F7C801DF91CF9120
:100520001F910F91FF90EF900C942D021F93CF938A
:10053000DF93EC01162F642F8C810E9430058D8192
:100540008F3F19F060E00E9430058F85612F84FF96
:1005500006C0CE01DF91CF911F910C94700270E024
:1005600084E0759567958A95E1F7CE010E944A026D
:10057000612FCE01DF91CF911F910C944A0240E090
:100580000C94960261E00E94BF0280ED97E00C940B
:100590008804443008F043E0FC012389421710F03E
:1005A0004FEF420FFC01E40FF11D2489260F206854
:1005B000622F0C94BF02FC016089262F2460208BDF
:1005C0006C600C94BF020F931F93CF93DF93EC01E9
:1005D000423018F08F8588608F874B8B1C8A80E4AF
:1005E0008D8B6E8B70E0605C7F4F6F8B222329F0C8
:1005F000413019F48F8584608F8761E08C810E947F
:10060000F7048D818F3F19F061E00E94F70461E0EB
:100610008E810E94F70400E010E08F8584FF03C004
:1006200088E090E002C084E090E00817190754F4D5
:10063000FE01E00FF11F61E087810E94F7040F5F68
:100640001F4FEBCF80E593EC0E94880460E08C8123
:100650000E94300560E08E810E9430058D818F3FC1
:1006600019F060E00E9430056F8564FD1DC063E0F5
:10067000CE010E944A0284E991E10E94880463E06D
:10068000CE010E944A0284E991E10E94880463E05D
:10069000CE010E944A0286E990E00E94880462E04E
:1006A000CE010E944A0216C06062CE010E94BF02C3
:1006B00084E991E10E9488046F856062CE010E9406
:1006C000BF0286E990E00E9488046F856062CE01D7
:1006D0000E94BF026F856062CE010E94BF0284E06B
:1006E000888BCE010E94DB02CE010E94C20282E012
:1006F000898B66E0CE01DF91CF911F910F910C9411
:10070000BF02CF92EF920F93FC01138212828FE609
:1007100096E09183808364838FEF8583468327836C
:100720000087E186C286138614861586168617868C
:1007300020E041E060E1CF010F91EF90CF900C9469
:10074000E302CF92DF92EF92FF920F931F93CF932A
:10075000DF9300D0CDB7DEB78C01677088E0689F6B
:10076000B00111246064C80149835A830E94BF020A
:100770004981C42E5A81D52EE12CF12CD6016D91E0
:100780006D01D801ED91FC910190F081E02DC8013F
:100790000995BFEFEB1AFB0AE8E0EE16F10471F7DA
:1007A0000F900F90DF91CF911F910F91FF90EF90DD
:1007B000DF90CF90089541E00E94960281E090E0A2
:1007C00008951F920F920FB60F9211242F933F930B
:1007D0008F939F93AF93BF938091950690919606C8
:1007E000A0919706B09198063091940623E0230FCC
:1007F0002D3720F40196A11DB11D05C026E8230F59
:100800000296A11DB11D20939406809395069093A6
:100810009606A0939706B0939806809199069091BA
:100820009A06A0919B06B0919C060196A11DB11D50
:100830008093990690939A06A0939B06B0939C068A
:10084000BF91AF919F918F913F912F910F900FBECC
:100850000F901F9018953FB7F8948091990690914A
:100860009A06A0919B06B0919C0626B5A89B05C050
:100870002F3F19F00196A11DB11D3FBF6627782FAC
:10088000892F9A2F620F711D811D911D42E0660F05
:10089000771F881F991F4A95D1F708958F929F92CD
:1008A000AF92BF92CF92DF92EF92FF926B017C01E9
:1008B0000E942B044B015C01C114D104E104F1043A
:1008C000F1F00E94B6050E942B04681979098A0983
:1008D0009B09683E73408105910570F321E0C21ABF
:1008E000D108E108F10888EE880E83E0981EA11C6B
:1008F000B11CC114D104E104F10429F7DDCFFF904C
:10090000EF90DF90CF90BF90AF909F908F90089521
:100910008230910538F0880F991F880F991F05972D
:100920000197F1F70895789484B5826084BD84B509
:10093000816084BD85B5826085BD85B5816085BDDA
:10094000EEE6F0E0808181608083E1E8F0E01082F3
:10095000808182608083808181608083E0E8F0E034
:10096000808181608083E1EBF0E08081846080831E
:10097000E0EBF0E0808181608083EAE7F0E0808155
:1009800084608083808182608083808181608083B5
:100990008081806880831092C1000895833081F047
:1009A00028F4813099F08230A1F008958730A9F0C1
:1009B0008830B9F08430D1F4809180008F7D03C0FD
:1009C000809180008F7780938000089584B58F7721
:1009D00002C084B58F7D84BD08958091B0008F776B
:1009E00003C08091B0008F7D8093B0000895CF93B5
:1009F000DF9390E0FC01E458FF4F2491FC01E057A5
:100A0000FF4F8491882349F190E0880F991FFC01E2
:100A1000E255FF4FA591B4918C559F4FFC01C591B4
:100A2000D4919FB7611108C0F8948C9120958223CE
:100A30008C93888182230AC0623051F4F8948C919F
:100A4000322F309583238C938881822B888304C036
:100A5000F8948C91822B8C939FBFDF91CF91089556
:100A60000F931F93CF93DF931F92CDB7DEB7282F3D
:100A700030E0F901E859FF4F8491F901E458FF4F44
:100A80001491F901E057FF4F04910023C9F0882326
:100A900021F069830E94CE046981E02FF0E0EE0F1F
:100AA000FF1FEC55FF4FA591B4919FB7F8948C911F
:100AB000611103C01095812301C0812B8C939FBFCE
:100AC0000F90DF91CF911F910F910895CF92DF92F8
:100AD000EF92FF920F931F93CF93DF937C016A01F4
:100AE000EB0100E010E00C151D0571F06991D701D4
:100AF000ED91FC910190F081E02DC7010995892BC2
:100B000019F00F5F1F4FEFCFC801DF91CF911F91F9
:100B10000F91FF90EF90DF90CF90089561157105D0
:100B200081F0DB010D900020E9F7AD014150510942
:100B3000461B570BDC01ED91FC910280F381E02D07
:100B4000099480E090E008950C948E0508950E9429
:100B500093040E94A6050E94F800C0E0D0E00E9425
:100B6000E2012097E1F30E940000F9CF0895EE0F13
:0E0B7000FF1F0590F491E02D0994F894FFCF3B
:100B7E00B003A40398038C038003740368035C031F
:100B8E005003440338032C03200314030803FC0210
:100B9E00F002E402D802CC02C002B402A8029C0207
:100BAE009002840278026C026002540248023C02F7
:100BBE003002240218020C020002F401E801DC01EA
:100BCE00D001C401B801AC01A001940188017C01DF
:100BDE00700164010000000001000000000001002F
:100BEE0000000000000000000000010001000100F4
:100BFE0001000100000001000000010000000000E3
:100C0E0000000000010000000000010000000100D3
:100C1E0001000100010001000100000001000000C0
:100C2E0001000100000000000000010001000000B2
:100C3E0001000000010001000100000001000100A0
:100C4E000100010000000000000001000000010092
:100C5E000000010000000100010000000100000082
:100C6E000100010001000000010000000100000071
:100C7E000100000001000100010000000100010060
:100C8E000000010001000100010001000000000051
:100C9E000100000000000100000001000000000043
:100CAE000100000001000000000000000000000034
:100CBE000100010001000000010001000100000020
:100CCE000100000001000100000001000100000011
:100CDE000000010001000000010001000100010000
:100CEE0000000100000000000100010000000100F2
:100CFE0000000100000001000100010001000000E1
:100D0E0000000100000001000100010001000100CF
:100D1E0001000100010001000100010001000000BE
:100D2E0000000100000001000100010000000100B0
:100D3E0000000100010001000100010000000000A0
:100D4E000100010000000000000000000000010092
:100D5E000100010000000100010001000000000080
:100D6E000100000000000000000001000100010071
:100D7E000000000000000000000001000000000064
:100D8E000100010001000000010000000000010050
:100D9E000100010001000100000000000000010040
:100DAE000000000000000100010000000000000033
:100DBE000100000000000100010000000000010021
:100DCE000100000000000100010000000000010011
:100DDE000000000001000000010000000000010002
:100DEE0000000000010000000100010000000100F1
:100DFE0001000000000000000100010000000000E2
:100E0E0000000100010000000000010001000000D0
:100E1E0000000000000001000000010001000000C1
:100E2E000100000000000000000000008D04850499
:100E3E007D0475046D0465045D0455044D0444047D
:100E4E00B504AD04B504A504B5049D04B50495041C
:100E5E00250674061D0615060D060506FD05F50587
:100E6E0074067406ED05E505DD05D505CD05C5054C
:100E7E00BD05B505AD05A5059D0595058D05850534
:100E8E007D0575056D0565055D0555054D05450524
:100E9E003D0535052D0525051D0515050D05050514
:100EAE00FD04F504ED04E504DD04D504CD04C5040C
:100EBE007406BD040008141808040204000002049D
:100ECE000810100E000010101215130E0000060868
:100EDE0006080A0602001012130E0202000011117B
:100EEE000A040A0400000C020C020A0C04000C0294
:100EFE00040804020000040A040804020000040AA4
:100F0E000A0A0A040000001C0A180A080005021F3B
:100F1E000A1A0A0A0004021F0A1A0A0A0000001F0F
:100F2E000A1A0A0A0000000E010E010E00001F0927
:100F3E000911130D00001F040904120C0400000017
:100F4E000000080402001F010715190900000B1507
:100F5E000913150904001F04080C12100C001F11B0
:100F6E000917090500001F0D0B07010100000B15E5
:100F7E000D051D0904001F010B15110900001F01AD
:100F8E000709090701001F021A15150A00001F0C98
:100F9E000204080400120C121208040200001F05BD
:100FAE00050F150900000B150D050F1509001F0182
:100FBE00070D0B0701001F14140F050500001F0974
:100FCE000907010100001F01010F150900000B1593
:100FDE000911130D00001F0206080A0601001F0961
:100FEE001509130D00001F010709090900001F153F
:100FFE001515150900001F040812150E00001F0418
:10100E000806110E00001F04040A0A0400001F0245
:10101E000608080600001F010D030D0100001F0940
:10102E00110B051908001F0117151D0100001F09DE
:10103E001209130D00001F011D09070100001F04F6
:10104E000904120C00001F091109130D00001F09DD
:10105E000505150900001F090B15130D00001F04CF
:10106E000E150E04000804121208040200001F12CE
:10107E001208040200001F18041B051900001F0CA3
:10108E00020C020C0006040408060A0C02001F04DF
:10109E0008060A0C02001B05050F05190068656C91
:1010AE006C6F2057656C636F6D65004D41524154F6
:1010BE0048492000424152414B4841444849202E64
:1010CE002E2E2E2E00204D415241544849204E5571
:1010DE004D424552532E2E2E2E2E0000000000DBC8
:0410EE000366050090
:00000001FF
